:10000000980C0220BD2E000075790000912E000092
:10001000912E0000912E0000912E0000912E0000E4
:1000200000000000000000000000000001280000A7
:10003000912E000000000000A9270000912E000072
:10004000812800008128000081280000812800000C
:1000500081280000812800008128000081280000FC
:1000600081280000812800008128000081280000EC
:1000700081280000812800008128000081280000DC
:1000800081280000812800008128000081280000CC
:1000900081280000812800008128000081280000BC
:1000A00081280000812800008128000081280000AC
:1000B000812800008128000081280000812800009C
:1000C000812800008128000081280000812800008C
:1000D000812800008128000081280000812800007C
:1000E000812800008128000081280000812800006C
:1000F000812800008128000081280000812800005C
:10010000812800008128000081280000812800004B
:10011000812800008128000081280000812800003B
:10012000812800008128000081280000812800002B
:10013000812800008128000081280000812800001B
:10014000812800008128000081280000812800000B
:040150008128000002
:1001540080F0004002E000BF81F0004142001FBF78
:100164005FEA410392EA030F7FEA226C7FEA236C81
:100174006AD04FEA1262D2EB1363C1BFD218414076
:1001840048404140B8BF5B42192B88BF704710F00C
:10019400004F40F4000020F07F4018BF404211F0AF
:1001A400004F41F4000121F07F4118BF494292EA17
:1001B400030F3FD0A2F1010241FA03FC10EB0C0043
:1001C400C3F1200301FA03F100F0004302D54942D0
:1001D40060EB4000B0F5000F13D3B0F1807F06D37D
:1001E40040084FEA310102F10102FE2A51D2B1F175
:1001F400004F40EBC25008BF20F0010040EA03006A
:100204007047490040EB0000013A28BFB0F5000FE9
:10021400EDD2B0FA80FCACF1080CB2EB0C0200FA9F
:100224000CF0AABF00EBC25052421843BCBFD040EE
:100234001843704792F0000F81F4000106BF80F468
:1002440000000132013BB5E74FEA41037FEA226C2B
:1002540018BF7FEA236C21D092EA030F04D092F0F6
:10026400000F08BF0846704790EA010F1CBF00202A
:10027400704712F07F4F04D1400028BF40F0004087
:10028400704712F100723CBF00F50000704700F0A7
:10029400004343F0FE4040F4000070477FEA2262CE
:1002A40016BF08467FEA23630146420206BF5FEA9F
:1002B400412390EA010F40F4800070474FF000039F
:1002C40004E000BF10F0004348BF40425FEA000C66
:1002D40008BF704743F0964301464FF000001CE00E
:1002E40050EA010208BF70474FF000030AE000BF64
:1002F40050EA010208BF704711F0004302D54042A2
:1003040061EB41015FEA010C02BF84460146002013
:1003140043F0B64308BFA3F18053A3F50003BCFA2E
:100324008CF2083AA3EBC25310DB01FA02FC6344DB
:1003340000FA02FCC2F12002BCF1004F20FA02F2E2
:1003440043EB020008BF20F00100704702F12002D5
:1003540001FA02FCC2F1200250EA4C0021FA02F236
:1003640043EB020008BF20EADC70704753B94AB976
:10037400002908BF00281CBF4FF0FF314FF0FF30A9
:1003840000F00CB8ADF1080C6DE904CE00F008F8EB
:10039400DDF804E0DDE9022304B07047704700BFD4
:1003A4002DE9F04F07468C460846099E15463C4603
:1003B4001946002B40F0C5808242B2FA82F746D932
:1003C4004FB1C7F1200E00FA07F3BD4024FA0EFE28
:1003D400BC404EEA030C4FEA15481FFA85FE220C76
:1003E400BCFBF8F908FB19C309FB0EFA42EA034304
:1003F4009A4528D9EB1809F1FF3004D29A4502D95D
:10040400A9F102002B44A3EB0A03A4B2B3FBF8F254
:1004140008FB123302FB0EFE44EA0344A64514D93A
:100424002C1902F1FF3303D2A64501D9931E2C44A3
:10043400A4EB0E0443EA00401EB1FC4000233460E8
:100444007360BDE8F08F4846DDE71346F0E702B974
:10045400FFDE87BB831A01214FEA154EAAB2200C96
:10046400B3FBFEFC0EFB1C330CFB02F840EA034317
:10047400984562D9EB180CF1FF3004D2984502D9A3
:10048400ACF102002B44A3EB0803A4B2B3FBFEFCC3
:100494000EFB1C330CFB02F244EA0344A2424ED985
:1004A4002C190CF1FF3304D2A24202D9ACF102039D
:1004B4002C44A41ABEE7C7F1200CBD4000FA07F390
:1004C40020FA0CF84FEA154E24FA0CFCBC404CEA16
:1004D4000302ABB2B8FBFEFC110C0EFB1C800CFB40
:1004E40003F941EA0040814523D928180CF1FF3172
:1004F40004D2814502D9ACF102012844A0EB0900E1
:1005040092B2B0FBFEFC0EFB1C000CFB03F842EAAB
:10051400004398450FD9EB180CF1FF3204D29845EB
:1005240002D9ACF102022B44A3EB080342EA0141D5
:1005340092E76146E2E76246F6E76046A3E7634670
:10054400B7E7834205D90EB1C6E900700021084619
:1005540077E7B3FA83F181B9834201D3BA420AD867
:10056400BC1A60EB030301209C46002E67D0C6E949
:10057400004C002165E70846F7E7C1F1200C8B40E9
:1005840002FA01F522FA0CF420FA0CFB27FA0CF219
:100594008F401C4300FA01F34FEA144913431FFA36
:1005A40084FE1A0CBBFBF9F809FB18BB08FB0EFA16
:1005B40042EA0B4292453ED9A21808F1FF3004D218
:1005C400924502D9A8F102002244A2EB0A029BB28E
:1005D400B2FBF9F809FB182208FB0EFE43EA0242BB
:1005E40096452AD9A21808F1FF3304D2964502D9B8
:1005F400A8F10203224443EA0040A2EB0E02A0FB4E
:1006040005939A42CE46984602D306D14F4504D26A
:100614000138B9EB050E63EB040886B1B7EB0E03A2
:1006240062EB080707FA0CFCCB40CF404CEA03030B
:10063400C6E900379DE74046C7E74346DBE7314656
:10064400FFE600002DE9F04F99B08E4802AF06F0A6
:10065400C6FC6D4602268C4B4FF486518B4807F13D
:1006640040027B643E6406F057FC894C204607F048
:1006740094FD98B988B0236802AA86491677C2E91E
:1006840005134FF4D251844B42F8103F7F4806F0D3
:1006940043FCAD465C37BD46BDE8F08F21687F481A
:1006A40006F09DFC7E4B2022002107F138007B617F
:1006B40007F0ADF97B4A7C4B0126C7E90C232823BC
:1006C40087F838303C2387F8393007F10C033B6452
:1006D4004FF47A53754A88B0C7E9033287F85660F5
:1006E40087F8546002AA7249D661C2E9051304234B
:1006F4004FF4035142F8103F644806F00DFCD4F85F
:100704000880AD462046D8F8003007F130019847FC
:1007140000280ADA88B002AA664BC2E9053003232E
:100724004FF4C25142F8103FB0E731462046D8F8A2
:1007340004309847002803DA88B002AA5E4BECE73D
:1007440000255E4EDFF87881DFF840914FF47A722D
:10075400A3680092D3F808A00021204607F11803EB
:1007640007F10802D047002810DA6C4688B002AAC4
:10077400544B4FF40151C2E905350423D06142F8CA
:10078400103F424806F0C8FBA54683E7EA468AB014
:10079400B968BB6902AAC2E907130523C2E9058542
:1007A4004FF42351484642F8103F06F0B5FBD546B6
:1007B400BDB12946444806F012FCB3464FF0000A86
:1007C400B96802225144B81D07F016F9B7F90600BA
:1007D400FFF778FD0AF1020ABAF5486F4BF8040BEB
:1007E400EED12F4807F10801013507F0FFFC152D64
:1007F40006F5C856AAD1354D35482B68354E013318
:100804002B6006F0ECFB4FF4FA31334806F0E7FBBB
:100814002968324806F0E3FB0025DFF8C48040462F
:1008240016F8011B013506F0DAFBB5F5FA3FF6D1EF
:10083400A36800215B681648984700280BDA6C46C9
:1008440088B002AA274B4FF4C251C2E905300323F2
:1008540042F8103F95E70224234B4FF486510B488E
:1008640007F12802FB62BC6206F056FB1F4B4FF4F3
:100874008651064807F12802C7E90A4306F04CFBF3
:1008840008E700BFF08B0000058C0000AC88000076
:1008940038860000118C000003000001218C000048
:1008A4005801002040420F00E06735001000800C22
:1008B400328C0000548C0000778C0000C8EEFF1FBF
:1008C400A58C0000908C0000C48C0000C8FB0120A3
:1008D400CB8C0000C8070020DD8C0000EC8C0000ED
:1008E400F98C0000FD8C0000158D00002B8D00009C
:1008F4002DE9F04F93B004461F468B46DDF870A0F7
:10090400019249B903784678807800EB830020444B
:10091400B34518D3A0EB040BA5780395E5B10AF011
:100924000103E278029212B11AF0020F16D1ABB9A8
:10093400019B1BB13A465946204698475E463046CD
:1009440013B0BDE8F08F451C284607F045F8013088
:1009540028440BF1010BDBE72B46E2E794F8009007
:100964004FEA89020492019A04EB8909002A5AD1B8
:100974005E4693B317464D44A9451CD14D46DDF858
:100984000880DFF834C28D490AF0050BC8440AF028
:100994000202A845D3D015F8010B54F82000604595
:1009A40024D3884222D21AF0010F39D1BBF1000FAF
:1009B400EFD1013EEDE719F8013B54F8230007F0AD
:1009C4000BF81D9B013033B11E9B9F423EBF1D9B04
:1009D40023F8170001370644CEE72DB11AF00407B7
:1009E400CCD01F46A944C9E72F46C7E7002AD0D078
:1009F4004FF00009019206F0EFFF1D9BDFF8B8C12C
:100A0400019A6E49013033B11E9B9F423EBF1D9B2C
:100A140023F8170001370644B9F1000FB9D0C5E730
:100A24004FF00109E6E7002B40F0B98025B11AF038
:100A3400040F40F0BC801D46A846039B0AF0010049
:100A440099444A46029B0AF0020E03EB090C0AF091
:100A54000403059394454FD1029B1AF0020F4B44B3
:100A64000693237808BFC4460593637818BF4FF0F4
:100A7400000C5A19D2B2002860D11AF0040F14BF26
:100A84004146002194F802A0E67807936270A170B1
:100A94003A4620460499019B84F803C09847B0F174
:100AA400000978DB059BE6702370079B3A46637068
:100AB4004146019B84F802A00EA89847061EFFF643
:100AC4003EAFDDE902311944049B3A4619440698C5
:100AD400019BABEB0101984700285EDB4E444FF0CD
:100AE400000906440DF1280B4D4529DC00213A4646
:100AF4000846019B984722E712F8013B2E4E54F812
:100B04002310B14202D32D4EB1420BD3BEF1000FDC
:100B140009D112AE08F10101B04408F8103C5FFAA3
:100B240081F897E730B112AE691C354405F8203CD2
:100B3400CDB28FE7059900298CD0EAE70021A1E71F
:100B440019F80B3054F823A08DF827301D9BFBB106
:100B540033F819803A460121019B0DF1270098478B
:100B640000281ADB0644B8F1000F06D1504606F0FF
:100B740033FF00F101081FFA88F83A46414650460F
:100B8400019B9847002808DB064409F10109ABE7FB
:100B9400DDF87480DEE74E46D1E60646CFE64FF038
:100BA40000080AA84946039A06F026FF45E7A84626
:100BB4000EA81D46F6E700BF48850000BC9700005C
:100BC400014B1B68184700BF00000020014B186050
:100BD400704700BF0000002007B50B460021024605
:100BE4000091034800F0FCF803B05DF804FB00BF7B
:100BF400C50B000030B5002587B0CDE903010446DC
:100C0400009503A90548059500F0EAF8DDE90430EC
:100C14009842B8BF255407B030BD00BFBD6F000077
:100C24002DE9F84FB0F81890044619F008089346D7
:100C34000DD001290CBF49F0100949F02009A0F892
:100C440018908BF31188BFF36F8FBDE8F88F09F00C
:100C54000709022907D1204606F0DBF90028F0D065
:100C64000128238B4ED16769218B002F15DA256863
:100C740021F00701C4E9008841F001012183002625
:100C8400218B01F0070ACA4502D0A368002B5AD170
:100C94000DB9002E71D0002356E001F007035A1F4E
:100CA400012A1ED821F00701062B256889B2C4E960
:100CB40000880AD13DB12A46638B126801339BB286
:100CC400002AFAD1638341F002012046218306F011
:100CD400A0F906460028D3D0238B43F020032383B6
:100CE400CDE7042B0CD121F0070189B220462183E2
:100CF40006F08FF905460028C1D041F02001218378
:100D04000025BCE7032809D1226923F007031668EC
:100D140043F00603002523832F46B1E7042806D1B8
:100D2400226923F00703566843F00403F2E7052819
:100D340006D1226923F00703966843F00503E9E727
:100D440000252E46E8E7012341F0080121838BF3B7
:100D54001188BFF36F8FFBB985BB16B120461F49BD
:100D6400B0474FF02003EFF3118B83F31288BFF3E6
:100D74006F8F238B23F008032383238BDA0625D577
:100D8400012123F010032383B4F8189009F0070914
:100D940000297FF45EAF54E7A1680029DCD0D1F8C4
:100DA40000903B4652462046D1F804B0D847B9F1EA
:100DB400000FD1D04946D9F80090F2E729463B46C6
:100DC400524620462D6806F040F9C5E713F020018D
:100DD4001EBF23F0200302212383D5E77B7000008C
:100DE4002DE9F04F8B4692461C46002591B00290A7
:100DF4009AF8000008B9284663E325280AF1010798
:100E040007D05946029B98470028C0F25A830135FF
:100E140012E2182200210AA806F0F9FD9AF801301E
:100E2400252B78D00022104696469446164639461D
:100E340017F8013B2B2B00F09D8000F29480202BAF
:100E440000F09B80232B00F09B802EB19DF8306036
:100E540046F004068DF83060BCF1000F05D09DF813
:100E6400306046F008068DF83060BEF1000F05D002
:100E74009DF8306046F010068DF8306028B19DF87A
:100E8400300040F020008DF830002AB19DF8302069
:100E940042F040028DF830209DF8302002F04400EA
:100EA400442803D16FF386128DF830209DF830204A
:100EB4002A2B42F080028DF830207BD19DF831201E
:100EC4004B1C42F001028DF831201A782E2A0CBFF7
:100ED400012100219DF8312061F341028DF8312078
:100EE40074D15A782A2A6AD000210A260133184676
:100EF40010F8012BA2F13007092F40F28E809DF8E3
:100F040030200E91C2F3400040EAD17161F34102F6
:100F14008DF830205AE00AF102078DF833309DF83D
:100F24003130D90740F1498154F8049BB9F1000FDD
:100F340007DA9DF83020C9F1000942F004028DF867
:100F440030205A0740F1428154F8048BB8F1000F65
:100F540080F241819DF831306FF341038DF83130D7
:100F64004FF0FF3837E12D2B0CD0302B7FF46DAFD1
:100F740001225CE74FF0010C59E74FF0010E56E7F0
:100F8400012054E7012652E733460CFB0202303AB3
:100F94001E4616F8010BA0F13007092FF4D9994227
:100FA40093D09DF830100D92D20F62F341018DF869
:100FB40030108AE70B4600224FF00A0CE8E79DF850
:100FC4003120023342F004028DF831201F4617F815
:100FD400012B6C2A41D025D8682A2BD06A2A46D006
:100FE4004C2A4CD01F4617F8012B9DF83130782A33
:100FF4008DF8332000F2D980572A4DD8412A03D0E6
:10100400453A022A00F2D18004229DF8323062F37C
:1010140002038DF8323001239EE006FB01210346D2
:10102400303964E7742A26D07A2ADBD106229DF867
:1010340031300DE05A78682A9DF8312006D101211B
:1010440061F3C6028DF831209F1CCCE713460222BF
:1010540062F3C6038DF83130C5E75A786C2A9DF8DF
:10106400312001D10421EBE713460322F0E70522E6
:101074009DF83130ECE707229DF83130E8E7BDF800
:10108400303023F4F04323F0020343F4804343F06D
:101094000203ADF83030A6E7A2F15801202900F28E
:1010A400848001A050F821F071110000AF110000FC
:1010B400AF110000AF110000AF110000AF1100002C
:1010C400AF110000AF110000AF1100000D100000BF
:1010D400AF11000071110000311100000D1000006B
:1010E4000D1000000D100000AF11000031110000C0
:1010F400AF110000AF110000AF110000AF110000EC
:10110400791100007111000095110000AF11000069
:10111400AF11000095110000AF1100007111000023
:10112400AF110000AF1100007111000001209DF803
:10113400321003F0780360F30201402B8DF8321073
:1011440002BF9DF8301041F001018DF83010632A80
:1011540031D1003B18BF01239DF83020C2F3400178
:101164000B4363F341028DF83020D8E602209DF84A
:101174003210DEE703219DF8322003F07803A3F157
:10118400400061F3020243428DF832204341E3E719
:1011940003219DF8322013F0780F61F3020214BF8B
:1011A400012300238DF83220D6E79DF8303043F038
:1011B40001038DF830300023CEE79DF93020002A5A
:1011C400ACBF4FF0FF39DDF83490BAE69B077FF5EA
:1011D400C7AEDDF838800023CDE90D339DF83230F9
:1011E4009DF8311003F00703012BC1F3C30135D17E
:1011F400CB1E042B22D8DFE803F0030909212100C8
:1012040054F8043BDA17CDE90A3206E0073424F037
:101214000704F4E80223CDE90A239DF8303013F0E3
:10122400030659D03B4652465946029806F0ECF85C
:101234000028C0F246810544BA46D9E554F8043B77
:1012440001294FEAE372CDE90A3202D19DF928302F
:10125400D8E70229E1D1BDF92830D3E7022B29D1FF
:10126400CB1E042B13D8DFE803F0030A0A12120082
:1012740000232268201D0A920B930446CDE7E01D4B
:1012840020F00700F0E80223CDE90A23F5E754F83B
:10129400043B01290A934FF000030B9305D19DF8F9
:1012A40028300A9300230B93B7E70229B5D1BDF880
:1012B4002830F6E7042B09D1E31D23F0070303F1DB
:1012C4000804D3E90023CDE90A23A6E7032B04BFCE
:1012D40054F8043B0A93A0E79DF833007828ABD870
:1012E400622822D825283FF48CAD5828A4D1DDE902
:1012F4000A010DF1260300930CAA04AB06F03EF894
:101304008246B8F1000F0DF126000CDB9DF8302069
:10131400A0EB0A036FF3861298458DF8302002D9AA
:10132400A8EB03030D9380463EE06338152883D869
:1013340001A252F820F000BFBD13000021140000E8
:101344003D1200003D1200003D1200003D1200005D
:10135400211400003D1200003D1200003D12000067
:101364003D1200007B140000491400004D140000DD
:101374003D1200003D120000951300003D120000D4
:10138400491400003D1200003D1200004914000001
:10139400B8F1000FDDF828A00ADB4146504606F0FC
:1013A40022FB00260AEB0008BAF1000F0CD143E738
:1013B400504606F011FBF4E700260A9B0DF1100AD3
:1013C4008DF810300DF11108A8EB0A0306B10133B2
:1013D4009DF83220D00668D5023352060D9948BFD5
:1013E4000E9A0B4448BF9B18B9F1000F76DD9DF8A7
:1013F4003020A9EB0309C2F38003039353076DD490
:10140400500661D546B159463046029B984700289C
:1014140057DB039B01351E46302356E01E070FD4CD
:1014240013F0100618BF2026DDE90A23002BBFF6AF
:101434005EAF524263EB43032D26CDE90A2356E700
:101444002B26F1E7002652E70A9840B30DF1260354
:101454000093002104AB0CAA05F090FFBDF83230D4
:10146400824603F0EF0343F4F04343F010030026F5
:10147400ADF8323045E70A9B07293FF6DDAEDFE8D9
:1014840001F00C04060C08080C0C1D70D4E61D8039
:10149400D2E6EA17C3E90052CEE61D60CCE6DFF8D7
:1014A400C8A006460AF105088EE7110748BF0133B4
:1014B40093E7184603935946029B98470028039BD9
:1014C40004DA11B0BDE8F08F20234D444A46002AC7
:1014D400A5EB090109F1FF39EBDC0D4636B159469C
:1014E4003046029B98470028EBDB01359DF83230EB
:1014F400D90601D41A0706D559463020029B9847CD
:101504000028DEDB01359DF83230DB0607D559466D
:101514009DF83300029B98470028D2DB01350D9ECD
:101524002E44731B002B16DC434652465946029840
:1015340005F06AFF0028C4DB0544A944A9EB0503B0
:10154400002B7FF779AE59462020029B984700284C
:10155400B7DB0135F2E759463020029B9847002853
:10156400AFDB0135DDE700BF3F8D000008B54FF06C
:101574002002EFF3118382F31288BFF36F8F01F01F
:10158400CBFC034805F02BFD01F00CF8FCE700BF91
:10159400458D0000054B03EB8000D0F8003223F0AA
:1015A400E04343F04053C0F80032704700258450B4
:1015B40010B54FF02003EFF3118483F31288BFF3C7
:1015C4006F8F01220C4B0D49C3F800250223002024
:1015D400C1F8D036FFF7DEFF1046FFF7DBFFC1F896
:1015E4000427C1F80429C1F8002B84F31188BFF340
:1015F4006F8F002010BD00BF00100050004000504D
:1016040048B1054B1A68054BB2FBF3F2044B504347
:1016140043F00103184770475400002040420F0074
:1016240020890000062807D10122044BC3F80025B5
:10163400BFF34F8F20BFFDE7704700BF004000504D
:10164400F0B583B000AF381D03F09CFB274B9842E4
:1016540048D103F02DF8041E13DA387903F098FB0F
:101664006D4688B06A46224BC2E90534032342F82A
:10167400103F00234FF4C2511E4800F003FBAD4657
:101684002CE040F607031C4D7C71AE68FB80746847
:101694007B683CB108212846184AA047041EDFDBBA
:1016A400336913B96FF05704DAE701220821284699
:1016B4009847041ED4DB01233D79114AAB40C2F89C
:1016C40004357879FE7906F020FB0E4B45F0004591
:1016D400B600C0F880509D51002CC1D120460C3773
:1016E400BD46F0BD6FF01204BAE700BF0000AD0BB9
:1016F400728D0000F488000020860000511700005D
:101704000070015080A1025038B5049CC4F3072531
:10171400284602F033FE00210A4BA20B02F0FC0221
:10172400C0F8801099500123E4B2074AA340284628
:10173400C2F8083502F0DAFF2046BDE8384003F06D
:1017440027BB00BF80A0025000700150F7B51446BB
:1017540083681B690BB100229847C4F307263046FF
:1017640002F014FE0546304606F0CFFA0027104B6F
:10177400220E9200C0F880709F50304602F0FEFDA9
:10178400A20B0C4B02F0FC021344E2B242F0004202
:101794001A60094BC0F8802005F1320200933046EC
:1017A4003B460194520006F0B9FA03B0F0BD00BF05
:1017B40080A1025080A002500D17000003F086B9EA
:1017C4002DE9F047044607464FF00109DFF8508041
:1017D40014B93846BDE8F08794FAA4F5B5FA85F54E
:1017E40009FA05F32E0108EB05156FEA030A24EA4A
:1017F40003042B7B002BEBD058F806301B694BB944
:101804004644736804222846196807EA0A0700F068
:101814002BFADDE7284698470028D9D1F0E700BF26
:101824000489000030B5002289B00F490F4806F042
:1018340053FE002200230024CDE906230E230C4D81
:10184400CDE903344FF440722846CDE90144094BF5
:101854000949009404F016FA0849284606F0F5FCF4
:10186400204609B030BD00BF85180000D80500200F
:10187400100600200D1B000098050220A38D000017
:10188400014804F001BC00BFC40100202DE9F84F59
:1018940081468846224BD3E8EF4F621CC3E8E12F10
:1018A4000029F8D11CB100242046BDE8F88F274652
:1018B4004FF0010A1B4D1C4E761B3611B74211DB4B
:1018C400B9F1000FF0D0002CEDD02046FFF778FFDF
:1018D4000446B8F1000FF6D000214FF4A47004F0D0
:1018E400F3FEF0E72B7B7BB1D5F800B0DBF80C30CE
:1018F4000BB128469847DBF8103043B96B680422D3
:101904002846196800F0B0F901371035D6E72846A3
:1019140098470028F2D00AFA07F31C43F4E700BF03
:10192400D4FB01200489000014890000014B53F802
:10193400200070472889000010B5044C237813B99F
:10194400034804F0A1FB0123237010BD8C05022081
:10195400C4010020084BD3E8EF2F0132C3E8E12F84
:101964000029F8D138B1054BD3E8EF2F013AC3E889
:10197400E12F0029F8D17047D0FB0120CCFB0120D6
:1019840000200246034BD3E8EF0FC3E8E12F002900
:10199400F9D17047D0FB0120F8B5FFF7F1FF00261D
:1019A4000746094C094D2D1B2D11AE4200DBF8BD35
:1019B40063685B792BB123685B6813B139462046B1
:1019C400984701361034F0E70489000014890000B8
:1019D4000149024805F0E3BD34890000D8FB012029
:1019E40008B50023074A4FF400401370064A1360F9
:1019F400064B074A1A6000F06DFBBDE80840FFF78C
:101A0400E7BF00BF8D050220D0FB012004000020A9
:101A140061780000014600220023014805F0E0BD82
:101A2400D8FB0120014805F074BE00BFD8FB01209B
:101A34000146014805F0B9BED8FB0120014805F074
:101A4400E8BE00BFD8FB0120F8B5174B187850B397
:101A5400FFF7E8FF054688B1144BD3E8EF2F013AAE
:101A6400C3E8E12F0029F8D10027114C114E361B91
:101A74003611B7420CDB2846FFF7DAFF0E4B1B6822
:101A8400002B01DDFFF788FFBDE8F840FFF7D6BF64
:101A940063685B7923B12368294620461B6898470D
:101AA40001371034E5E7F8BD8C050220CCFB01209A
:101AB4000489000014890000D0FB0120F8B50F4F01
:101AC4003D787DB929460120FFF7E0FE0C4C0D4E10
:101AD400361B3611B54206DBFFF7B6FF0028FBD1F3
:101AE40001233B70F8BD63685B791BB12368204612
:101AF4009B68984701351034ECE700BF8D05022040
:101B0400048900001489000000212DE9F84F0846DB
:101B1400FFF7BCFE044680B340F267684FF000094B
:101B240004F0ECFD1D4B186030B11D4B1B68092BF4
:101B340002DD1C4804F0A8FA00271B4E1B4BDFF8FB
:101B440064B0F61A361144B12046FFF739FE044654
:101B540018B94FF0FF384FF0FF39FFF775FF05460E
:101B640048B91FB18246114FB2450BDB42464B4682
:101B7400584604F0A9FA2F46E5E74FF0FF384FF036
:101B8400FF39CDE73B689B691BB1002238461146FB
:101B940098470AF1010A1037E6E700BF10FC01205C
:101BA400CCFB0120C401002014890000048900003A
:101BB4001F4B13B51B68044698472146A0601D4877
:101BC40005F087FD1C4BD3E8EF2F511CC3E8E01F41
:101BD4000028F8D1194B1B787BB14FF02003EFF3A9
:101BE400118483F31288BFF36F8FFFF72DFF84F303
:101BF4001188BFF36F8F02B010BD114B1B68002B0F
:101C0400F9D052B9002200230E48CDE900234FF445
:101C14000042002304F096FFEDE70A2AEBD10948BD
:101C240006F066FC084802B0BDE8104004F02CBA87
:101C340004000020D8FB0120CCFB01208D050220EC
:101C440010FC0120D8050020C4010020044A054BE3
:101C54009B1AB1EBD30F34BF52F831000020704708
:101C64009C88000004890000054A4368801A012208
:101C740000110130187119605A71FFF75DBE00BF81
:101C8400048900002DE9F04FC1F3CB45C1F3492687
:101C940081460C4690469A468DB01735002E3BD0AF
:101CA40002234FF0040B002209A807AF314600932A
:101CB400CDF808B0034601974046CDE909220B92BE
:101CC4000596FEF715FEC0F30903581920F0070026
:101CD40080081E4663F352240493FFF79BFE0546D7
:101CE40078B1049B00220A930223103009900B92CE
:101CF40000934046CDE9017B0B4A059909ABFEF7F9
:101D0400F7FD66F3522453462246494628460DB051
:101D1400BDE8F04F05F0C0BD25F007008008FFF7CF
:101D240079FE0546EDE700BF6F7800000EB403B5F9
:101D340003AB53F8042B01460448019305F0D4FD8A
:101D440002B05DF804EB03B0704700BF15790000E2
:101D54002DE9F04F89B09A469DF848300446049323
:101D6400DDE913830693159B0F460593049B934665
:101D7400169E002B00F0138106F00803079305F06C
:101D840072FD06F002050246002800F0B2802046EB
:101D94008949FFF7CBFF81464DB116F0440F40F05F
:101DA400AA803A4620468549FFF7C0FF814406F0E1
:101DB40001035BB1824B049A204653F82220814BE5
:101DC4008149002A08BF1A46FFF7B0FF06F008034E
:101DD400002B00F0BC807D4B049A204653F822204F
:101DE4007B49FFF7A3FF0546BBF1000F05D05A4618
:101DF40020467849FFF79AFF0544BAF1000F05D051
:101E0400524620467449FFF791FF05444D44B8F10A
:101E1400000F00F0CC80714843462246704905F01B
:101E24007EF8059B002B4CD0DFF8B881059F102F5E
:101E340028BF1027F30607D4B00648BF6A492046D6
:101E440058BF6A49FFF772FF4FF0000A554500F387
:101E540084804FF00009DFF898A1DFF898B1B94504
:101E640080F08B80069B5946204613F80920FFF723
:101E74005DFF09F10109B9F1100F75D120465E49E2
:101E8400FFF754FF4FF0000BDFF870A15F4540F2FD
:101E94008180069B514613F80B202046A2F12003B3
:101EA4005F2B28BF2E22FFF741FF0BF1010BBBF183
:101EB400100F67D1069B3B440693059BDB1B0593E0
:101EC400B4D1049B7BB1F10704D520463D4A3E4979
:101ED400FFF72CFFF20606D4B30620464CBF424956
:101EE4004249FFF723FF204609B0BDE8F04F05F053
:101EF40002BD814650E7424B186800283FF456AFB4
:101F0400404B4FF4616519684FF47A7EB7FBF1F7E3
:101F1400B7FBF0F1B1FBF5F200FB11770EFB07F70D
:101F2400B7FBF0FC05FB12153C2100FB1C77B5FB4D
:101F3400F1F30EFB07F7B7FBF0F701FB1351204653
:101F44000091CDE901C73049FFF7F0FE2EE706F016
:101F5400080549E7049D2D485EE741462046FFF702
:101F6400E5FE0AF1010A71E719F0070F7FF477AF74
:101F740041462046FFF7DAFE71E751462046FFF757
:101F8400D5FE76E71BF0070F80D141462046FFF7C8
:101F9400CDFE7BE741462046FFF7C8FE85E7B8F152
:101FA400000FD7D1059B002B9DD0049D3CE7059BDA
:101FB400002B88D038E700BFB48D0000B88D000036
:101FC40048890000AF8D0000DD8D00005C890000B1
:101FD400E08D0000E68D0000EA8D00001579000018
:101FE400ED780000FA8D0000F08D0000EF8D000008
:101FF400F88D0000F28D0000FC8D0000FE8D0000C5
:1020040014FC012018FC0120C18D0000437900005C
:102014002DE9F0414B680F8805460C4690468E68C2
:1020240086B0C7F382175BB113495B1A43F3CF0140
:1020340000291FDB2078C0F3C200FFF707FE034628
:10204400214651F8102B6088C2F34922002A01EB83
:10205400020408BF0021C0F3CB00CDE90308CDE999
:1020640001140022314628460097FFF771FE06B09E
:10207400BDE8F0810023E3E79C88000042F20F737F
:1020840073B58B4228BF0B46056804460521684694
:102094000D4A04F0B1FF0646636828460B225B68CC
:1020A4000A4905F014FC63683246694628465B68B1
:1020B40005F00DFC63681B2228465B68044905F0A3
:1020C40006FC02B070BD00BFA28C00003D8E000073
:1020D400218E000001230021074A10B5074C13602C
:1020E400A04204D801B11360054B186010BD012152
:1020F40040085B00F4E700BF18FC012040420F00D9
:1021040014FC0120F8B50D460446064F4618B442A7
:1021140001D12846F8BD386814F8011B83685B6850
:102124009847F4E734FC0120014B00201960704704
:1021340024FC0120014B024A1A60704734FC012040
:10214400088600000122024B02481A7005F0D3BB36
:102154008E0502208C8900000148FFF78FBF00BF65
:102164008C890000064B10B518680C46FFF7DEFB9F
:102174002146BDE8104003460F220248184700BF1D
:1021840024FC01208C8900002DE9F84305464FF01A
:102194002003EFF3118683F31288BFF36F8F0E4B86
:1021A4001C689CB14FF00C090C4FDFF83480D4E963
:1021B4000132002D08BF13462BB198F8142009FBF7
:1021C40002F2B85C98472468002CF0D186F3118899
:1021D400BFF36F8FBDE8F88338FC01204CFC01206D
:1021E4007C030220012238B5174B1C7D04F01F0329
:1021F4009A40D043154B610903EB8103D3E8EF1FE9
:1022040001EA0005C3E8EC5FBCF1000FF6D111420E
:1022140013D00F4B0F4D8BB10C236343EA18517845
:10222400E85C05F002FB0020FFF7AEFF0C235C43E3
:1022340000232A192B51C2E9013338BD83F31188D5
:10224400BFF36F8FEFE700BF7C03022058FC01202F
:102254002F7800004CFC01202DE9F041314B07465A
:102264001D7D4FF02003EFF3118883F31288BFF331
:102274006F8F0C246C432C4B2C4E195D1A190029BA
:1022840045D007CA06EB040C8CE8070000221A5557
:1022940088F31188BFF36F8F0C236B43F05CF21843
:1022A40098B37B1C0FD04FF400440021D2F808C02F
:1022B4001F480023ECFB04011E4AFEF757F80121D6
:1022C400381A06F0E5F803F07FFF0120FFF75CFF02
:1022D400012105F01F029140174A6B0902EB8303A9
:1022E400D3E8EF2F0A43C3E8E02F0028F8D1134BBB
:1022F40033B10C20684333185978305CFFF792F9F6
:10230400FFF770FF04F030F90120BDE8F0810146C9
:10231400284600F015F80028BAD007C8344484E8E9
:102324000700B5E77C03022040FC01204CFC01209F
:102334003F420F0040420F0058FC012029160000C4
:102344002DE9F04F85B00E4603A900F041F84FF493
:1023540000474FF0000B039B441E0193194BDFF819
:102364006880D3F800A024B2631C04D10025284659
:1023740005B0BDE8F08FC4465946019B04EB440503
:1023840003EB850568680023E0FB07C10F4A60463C
:10239400FDF7ECFFC44659468146A8680023E0FBDC
:1023A40007C10A4A6046FDF7E1FFBAF1FF3F01D0D9
:1023B400824504D9721CDAD04844B042D7D9013CD2
:1023C40024B2D1E7080000203F420F0040420F0032
:1023D40008B9024B0B600020704700BF9C890000C5
:1023E400014804F06FBC00BF9C89000010B504468E
:1023F40018B90D4B0D485B689847616808290DD0E2
:1024040031F004030AD011F0020108D02146084833
:1024140005F0ECFE002323600023636010BD14224A
:10242400206805F0F4FAF7E7E0000020668E00006B
:102434005CFC012008B540B34368042B0BD0082B87
:1024440016D003B300684FF0FF324FF0FF3303F0B0
:1024540067FD58B115E001220368D3E8EF1F002996
:1024640003D1C3E8E02F0028F7D10AD1002008BD2A
:102474000368074A1B7803F5807352F82330002B56
:10248400F4D00448F3E70448F1E76FF4E040EEE7E2
:1024940000000350E98FFFFFEA8FFFFF08B508B380
:1024A4004368042B07D0082B13D0F3B1006803F062
:1024B400AFFD00200CE000220368D3E8EF1F0129E0
:1024C40003D1C3E8E02F0028F7D1094808BF10461C
:1024D40008BD036800201B78064A03F5807342F8A0
:1024E4002300F5E76FF4E040F2E70348F0E700BFAC
:1024F400E98FFFFF00000350EA8FFFFF10B5044689
:1025040018B9164B16485B6898476368042B23D0A8
:10251400082B21D0CBB92368BBB94FF0FF324FF061
:10252400FF3321460F4803F04FFB08B923681BB95A
:102534000A4B0D485B68984714220021206805F077
:1025440066FA636843F002036360206805F0A0FE46
:10255400636843F00103636010BD00BFE000002026
:10256400668E00005CFC01208C8E000008B50649D4
:1025740040231422054805F01EFEBDE80840044926
:10258400044804F001BC00BF78FC01205CFC01207D
:10259400B4890000A4890000014910220A60704730
:1025A40010ED00E072B6404080F31188BFF36F8FE6
:1025B400BFF34F8F30BF62B6BFF36F8F704700BF5A
:1025C40072B6494081F3118820BF80F3118862B646
:1025D400704700BF2DE9F04781460C4600AF002943
:1025E4004CD0D1E900126E468AB0A3686D464FF014
:1025F400050AA8462548C5E90723C5E9050148F8A1
:1026040010AF002342464FF421512148FFF73AFB13
:10261400D4E90312B5466369AD461E48C5E90723EC
:10262400C5E90501C5F810A0002342464FF4215125
:102634001748FFF727FBB54688B0E3696D464FF0AE
:10264400030AA846144AC5E9052348F810AF002335
:1026540042464FF4C2510E48FFF714FBB546A36936
:10266400AD460E4AC5F810A0C5E90523002342462D
:102674004FF4C2510648FFF705FBB54621464846CC
:1026840003F03CF9BD46BDE8F08700BFB98E0000F9
:10269400DC880000E88E0000178F0000268F000001
:1026A40043B2002B08DB012200F01F0002FA00F005
:1026B400024A5B0942F82300704700BF00E100E0D2
:1026C40043B2002B0DDB012200F01F0002FA00F0E0
:1026D4005B09044A203342F82300BFF34F8FBFF352
:1026E4006F8F704700E100E0054B420953F8222048
:1026F400012300F01F0003FA00F01040704700BFF0
:1027040000E100E043B2002B01F10101ACBF03F191
:102714006043064B4FEA4111C9B2ABBF03F56143B5
:1027240000F00F0083F800131954704714ED00E013
:1027340030BFFFF7FDBF00BF0B4A08B50B4B22F0BB
:102744007F029A60BFF34F8FBFF36F8FD3F8882057
:1027540022F47002C3F8882003F068F904F034F816
:1027640000F09EFB03F0A2F90000000000ED00E081
:10277400094A0A49936809685867996708494B6880
:1027840043F080534B60002383F31188BFF36F8FB2
:102794009368986F704700BF7C0302204C8B000045
:1027A40000ED00E013498A684FF030001044EFF365
:1027B400098C80E8F01F202080F31288BFF36F8F0C
:1027C4000D4F4FF00066CA698A603E60506F002367
:1027D400536780F3118802F1300090E8F01F8CF306
:1027E400098802F1000004B505F0C9F8BDE8044009
:1027F400704700007C03022004ED00E01EF0040F8B
:102804000CBFEFF30880EFF30980816911F8021C13
:102814000229FFD001B505F0A3F801BD42F8203C20
:10282400009B0B4942F81C3C019B21F0010142F83A
:10283400183C029B42F8081C42F8143C4FF0807389
:1028440042F8043C0023203A02654367704700BF06
:10285400B7710000084B9860436E83F30B881046F1
:1028640081F30988002163B681F31188BFF36F8F68
:102874000022002304F09DFC7C03022001B572B603
:102884000B4A906900281EBF0021916105F0E2FC0B
:1028940062B6EFF30580A0F110004FEAC0000549CD
:1028A400014409C99847BDE80140034908470000AD
:1028B4007C03022050860000C1280000044B996864
:1028C400D869884203D003494FF080520A607047A8
:1028D4007C03022004ED00E02DE9F04186B00646B9
:1028E4000D4600AF0224414B4FF48251404807F19A
:1028F40010027B613C6105F046F83E4B9B6ADB06A7
:1029040009D53D4B4FF48251394807F11002C7E90C
:10291400044305F038F8374B9B6A18070AD5374B40
:102924004FF482517B610223314807F110023B616D
:1029340005F029F82F4CA36A990722D5E846304BB5
:1029440007F110027B6102234FF4825128483B6156
:1029540005F019F8636BA26A120612D588B06A46AC
:1029640028492348C2E9051303234FF4C25142F80E
:10297400103F05F008F8C5461EB1A36A23F0800392
:10298400A3621C4B9B6ADC070AD51F4B4FF4825190
:102994007B610223164807F110023B6104F0F3FF48
:1029A400144B9B6A98060AD5184B4FF482517B61ED
:1029B40002230F4807F110023B6104F0E4FF0020FA
:1029C4000C4B18379A6AD10658BF9A6A9A6A9206CB
:1029D40042BF5A6A22F400525A62064A936A43F08A
:1029E400FF0393622870BD46BDE8F081548F000058
:1029F400DC88000000ED00E06A8F00009D8F00007D
:102A0400B08F0000C88F0000DE8F0000FD8F000033
:102A14002DE9F04186B006460D4600AF02243E4B38
:102A24004FF482513D4807F110027B613C6104F090
:102A3400AAFF3B4B9B6AD90409D53A4B4FF4825108
:102A4400364807F11002C7E9044304F09CFF344BF5
:102A54009B6A1A050AD5344B4FF482517B610223D9
:102A64002E4807F110023B6104F08DFF2C4CA36A41
:102A74009B0522D5E8462D4B28487B61022307F1AC
:102A840010024FF482513B6104F07DFFA36BA26AF4
:102A9400100412D588B06A4625492048C2E90513B6
:102AA40003234FF4C25142F8103F04F06CFFC546B3
:102AB4001EB1A36A23F40043A362194B9B6A590510
:102AC4000AD51C4B4FF482517B610223134807F152
:102AD40010023B6104F057FF114B9A6AD20515D5D9
:102AE400154B7B6102234FF482510C4807F110020D
:102AF4003B6104F048FF0020094A1837936A43F405
:102B04007F4393622870BD46BDE8F0819B6A9B04B5
:102B1400F1D50A4BE5E700BF2C900000DC880000EB
:102B240000ED00E0429000009D8F000053900000F3
:102B34006C900000819000009C900000FD8F0000CC
:102B440010B586B002243A4B4FF48251394804AA96
:102B54000593049404F017FF374B9B6A9B0108D537
:102B6400364B4FF48251334804AACDE9044304F0B0
:102B74000AFF314B9B6ADC0109D5314B4FF482517A
:102B8400059302232B4804AA049304F0FCFE2A4B69
:102B94009C6A14F4801409D002242A4B4FF4825105
:102BA400244804AA0593049404F0EDFE224B9B6A86
:102BB400180309D5244B4FF48251059302231D4871
:102BC40004AA049304F0DFFE1B4B9B6A590309D546
:102BD4001E4B4FF4825105930223164804AA049312
:102BE40004F0D1FE144B9B6A9A0309D5184B4FF499
:102BF4008251059302230F4804AA049304F0C3FEF0
:102C04000D4B9B6ADB0309D5124B4FF4825105939C
:102C14000223084804AA049304F0B5FE064A204699
:102C2400936A6FEA03436FEA1343936206B010BDDD
:102C3400B4900000DC88000000ED00E0CC900000BF
:102C4400DF900000F9900000239100004191000002
:102C540066910000809100002DE9F04F8BB0784B15
:102C64000E46D3F80480002500AFC8F3080485F3AA
:102C74001188BFF36F8F02F07F43B3F17F4F0ED102
:102C840002F00C03082B0CD16E4B4FF48251FB6104
:102C940002236D4807F11802BB6104F074FE2E464E
:102CA40003E0120701D4064601250023FB71E31E4D
:102CB400092B00F2A480DFE803F005979A94A2A2FE
:102CC400A2A2A29DE9464FF0020A4FF0000B5F4B0F
:102CD400DFF86C814FF482515B4807F11802FB6105
:102CE400C7F818A004F04FFED8F82C4087F807B0B6
:102CF40014EA0A040BD0564BC7E906A34FF48251D9
:102D0400514807F1180204F03EFE00240DE0D8F803
:102D14002C30002B25DA4F4B4FF482514A4807F1EF
:102D24001802C7E906A304F02EFEFB79ABB92022F2
:102D3400314607F1080004F05FFE7B6A002D79D06C
:102D4400C3F3080222B96FEA53236FEA43237B6279
:102D5400204607F10801FFF73DFC2C37BD46BDE8CE
:102D6400F08FD8F82C305B00DFD53B4B07F118020D
:102D74004FF482513448C7E906A304F004FEB36952
:102D840033F8022C4DF602739A4209D0D8F8283051
:102D9400DBB2B3B10120F91DFFF79EFD0446C4E781
:102DA40088B06A4633682D492748C2E905130323CE
:102DB4004FF4C25142F8103F04F0E5FDCD463468AB
:102DC400B3E7D8F8283013F47F4F04D00120F91D5D
:102DD400FFF71EFEE2E7D8F828301B0C1B04002B7B
:102DE400A3D0FFF7ADFED9E70020F91DD4E70020FA
:102DF400F91DEDE71A4BFB610223BB617EE7194A1B
:102E040018F4F87FE8468AB0174B18BF13466A4691
:102E14001649103CC2E90513022382F82030144BF2
:102E2400D4614FF40951084842F8103F04F0ABFD57
:102E3400C5466AE723F4FF7323F0010387E700BF65
:102E440000ED00E0D9910000DC880000049200004D
:102E54001B9200003C9200004A920000699200001C
:102E640085920000C0910000AB910000A99200007F
:102E740004000001044B5A6942F010025A615A6975
:102E840042F480625A61704700ED00E0EFF308807D
:102E9400EFF3098101B57246FFF7DEFE01BD00BF05
:102EA400002320210348C2180133452B82F8001364
:102EB400F9D1704700E100E0002080F31488BFF3EB
:102EC4006F8F002080F30A8880F30B88FEF776FC6E
:102ED40000200E490860BFF34F8F0D4880F3088827
:102EE40000F03EF8202080F311880A484FF4006176
:102EF400401880F30988EFF314800221084380F31B
:102F04001488BFF36F8FFFF717FC000094ED00E007
:102F1400980C0220D80D0220BFF34F8F0549064BB1
:102F2400CA6802F4E0621343CB60BFF34F8F00BF63
:102F3400FDE700BF00ED00E00400FA050023184699
:102F44000649D1F89020C2F30722934200D170477A
:102F5400C1F89830C1F8A0000133F6E700ED00E0B5
:102F640010B572B6002484F31388FFF7E7FF2346F5
:102F74004FF0FF300B4A03F120010133102B42F8CC
:102F84002100F8D100234FF0FF3003F16001013339
:102F9400102B42F82100F8D162B6BFF34F8FBFF374
:102FA4006F8F10BD00E100E0084B9B6883420BD19A
:102FB400EFF3058343B1064B5A6842F080525A60DE
:102FC4005A6A22F400425A6203F09EBB7C03022038
:102FD40000ED00E01FB5094C094A234601210948C8
:102FE40000F02AF900230393074B0121E41A01A8F6
:102FF4000193029400F02AF904B010BD00000720E8
:1030040000000020C8890000D801002010B50B681A
:103014000C7A23F01F0204F01F031A43CB686409DF
:1030240023F01F03054943EA440343F00103C1F8B5
:103034009800C1F89C20C1F8A03010BD00ED00E05C
:1030440080B500AF88B06A46074BC2E90530032358
:1030540042F8103F00234FF4C2510448FEF712FE19
:103064006FF01500BD4680BDC0920000D4880000FA
:103074002DE9F04F144606464FF0000987B05F4D26
:1030840000AF79607B68994535DAD6F80480B8F1E9
:10309400000F54D0B8F11F0F1BD918F01F0F18D10F
:1030A400D6F800B01BF01F0F13D1584604F06EFC85
:1030B400824608EB0B00013804F068FC82451FD0FF
:1030C4006FF0150A6C4688B06A464D49C2E9051A84
:1030D40005E06C4688B06A464A4BC2E905390323C9
:1030E40042F8103F00234FF4C2514748FEF7CAFD8F
:1030F400A5466FF0150420461C37BD46BDE8F08F89
:103104001AF1160FDED05445DCDDC5F898A0D5F8C9
:103114009C00C5F898A0D5F8A02020F01F0042F02C
:103124001F08D6E900120A44884202F1FF3B1ED16F
:10313400D84508D131465FFA8AF004F030FC09F131
:1031440001090C369EE73146C5F898A0D5F89C30A5
:1031540022F01F0203F01F031343C5F89C30E0B2B2
:1031640004F01DFC10F1160FC3D0441CE7E701392D
:10317400D845E0B221F01F01C5F898A008D1D5F8D0
:10318400A03003F01F031943C5F8A0103146E7E748
:10319400D5F8A02002F01F021143C5F8A010314653
:1031A40004F0FDFB10F1160FA3D0C5F898A0D5F8D4
:1031B4009C203B7C08F1FF3862F304033B74D5F890
:1031C400A0303A7C5B0863F34712D6E900310B4424
:1031D400BB6023F01F034344441CA3EB0B0BE0B27E
:1031E4002BF01F0307283A747B6102D9FFF728FFED
:1031F400B8E707F10801FFF709FFB6E700ED00E0C3
:1032040009930000E6920000D48800000522044BD4
:10321400C3F89420BFF34F8FBFF36F8F704700BF85
:1032240000ED00E0BFF35F8F0022024BC3F894204F
:10323400704700BF00ED00E010B5034C2278FFF7A3
:1032440017FF207010BD00BF900502202DE9F74F35
:10325400294D8A4606464FF00008AB46274FD04515
:103264001BDAD6F80490B9F1000F3FD03168084654
:10327400019104F08BFB0199044609EB010001382C
:1032840004F084FB84424FF014021D4B08D06FF00D
:10329400150302FB08F84BF8083003B0BDE8F08FC3
:1032A40014F1160F2C60F8D01978A142F5DD02FB59
:1032B40008B0C7F89840C7F89840D7F89C4000F188
:1032C4000801007B64F304000871D7F8A0000C79AE
:1032D400400860F347140C71D7F89C1021F01F01CB
:1032E4006960D7F8A01021F01F01296108F10108D5
:1032F40014350C36B3E700BF7801022000ED00E07E
:103304009005022038B50E4D2C68082C15D80020E5
:10331400FFF788FF0B4B0C4AC3F8C020844205D149
:103324000A4B00201C70FFF771FF38BD696801EB80
:103334000011FFF76BFE0130F0E74FF0FF30F4E7C8
:10334400D489000000ED00E0AAFF440090050220AB
:10335400014B1860704700BF2C000020084B70B56B
:10336400C31A0D4607499B10044659434022064898
:1033740004F075FB2B4601462046BDE87040184713
:103384009C010220B76DDBB6C0850000402373B5F5
:103394000B4C0093041B0B460D460A49A4106143D1
:1033A4000646094A094804F087FB011E05DA30463F
:1033B4002B4602B0BDE87040184702B070BD00BF94
:1033C4009C010220B76DDBB62B7B0000C08500009A
:1033D4002DE9F8430022012106460520FFF792F962
:1033E400144801F067FC144B98421FD14FF050234E
:1033F40049F6A532C3F85C2504F004FE00244FF01E
:103404001C080C27DFF834903569494608FB045042
:1034140003F04EFE002807DB012307FB04551C4480
:10342400042CAB67F0D10020BDE8F8836FF00400F2
:10343400FAE700BF793400000000AD0B488A0000B1
:1034440001460C2300224B43084870B5C418783356
:10345400D4E91C561844226704F0EEFA2DB1324622
:103464002B46BDE870400248184770BD9C010220FD
:10347400C0850000052811D8DFE800F0030E101005
:103484000C0A074B986F10F0070007D1FFF7D8BF5D
:103494000220FBE70320F9E70120F7E7704700BFAC
:1034A4009C01022008B54FF02003EFF3118183F350
:1034B4001288BFF36F8F124A136843F0020013F0AF
:1034C400010310600CD04FF05022D2F80C34D2F823
:1034D4000C2413F0010303D00A4804F0ADFA0123CD
:1034E40081F31188BFF36F8F23B1BDE8084000203A
:1034F400FFF7A6BF0120BDE8084004F095BD00BF5A
:103504003C020220140202201FB500220123CDE94F
:1035140002236B46084ACDF800D0CDF804D004F05D
:10352400FBFA002805DB4FF480420023684602F0D2
:10353400CBFD05B05DF804FB617B0000074BD3E8CD
:10354400EF2F22F00201C3E8E01F0028F7D1D307D0
:1035540002D4012004F0C8BD704700BF3C02022021
:10356400C3B21C20014A03FB002070479C010220C7
:103574002DE9F041012207463749D1E8EF3FC1E880
:10358400E02F0028F9D133B9344935484B60CB607A
:103594008A6003F0A0FD7B1E012B2FD8012F07D1D9
:1035A4004FF05023D3F81C3403F00303022B25D02F
:1035B40004F045FE044618B92A4B1B78002B44D16D
:1035C4004FF02003EFF3118683F31288BFF36F8F5C
:1035D40001244FF05025DFF89080D5F81834D5F841
:1035E4001824D2030CD503F00303022B01D0012FBE
:1035F40006D124B386F31188BFF36F8FBDE8F08141
:10360400C4B13046FEF7DCFFD5F81835DBB2012B28
:10361400E3D1D5F80421002ADFD00022C5F8042123
:10362400D5F804210222C5F818252022C8F88021E3
:10363400AB60D2E70021212003F046F8E4E74FF025
:1036440050230222C3F80423D8E74FF05023022268
:103654000646C3F80823BCE7400202208C0102207E
:10366400B80102209305022000E100E008B50848F3
:10367400084B186004F091FD38B10748FFF768FE65
:103684000548FDF7A3FA002008BD6FF01200FBE720
:103694000886000044020220A13600000A2838B53A
:1036A4000446074D04D1286883680D215B68984758
:1036B40028688368E1B25B689847204638BD00BF3C
:1036C4004402022030B5406801F01F05047BB2F5C6
:1036D400001F45EA441585B04FF0000405D1284683
:1036E40001F0A4FD002005B030BDB2F5800FCDE996
:1036F400024433D1B3F1007F0CBF042305238DF8BA
:103704000830836823FA01F1C90719D4B2F1A07F04
:1037140016D11E4A1E486909012908BF024605F050
:103724001F03803352F82330DB0709D40DF107045B
:103734002146284601F0E0FC164B984219D0039428
:1037440000232846194602AA01F0B0FB124B984206
:1037540018D10121284601F023FDC3E7B3F1C06F5E
:1037640005D0B3F1007F0CBF02230123C7E7032375
:10377400C5E7204601F00EFD074B9842DFD06FF0FD
:103784000B00B0E76FF01500ADE700BF00258450D3
:10379400002884500400AD0B0000AD0B10B501F0FF
:1037A400E9FC044668B901F0BDFC084B98420AD113
:1037B4002146074801F09AFC224605210D20FEF718
:1037C400A1FF002010BD6FF00400FBE70000AD0B6B
:1037D400D93700004209034670B502D0012A15D03A
:1037E40070BD0B4E326951680029F9D0012503F0F0
:1037F4001F030C689D408A682A4002D030464B68FB
:103804009847002CECD021462468F4E7014EE9E700
:10381400D8850000F08500002DE9F043D0F804803D
:1038240001F01F0698F80C3085B046EA431614469A
:103834000F4630460DF1030101F05EFC14F44035EF
:1038440081460BD1304601F019FD424B994503D115
:103854009DF8030001F098FC002056E00023304658
:10386400194602AACDE9023301F020FB394B9842F4
:1038740002D06FF0150048E0814503D19DF80300A4
:1038840001F082FCA50352D540F206332340B3F580
:10389400837F3DD00CD8062B15D004D89BB1022BC6
:1038A400E7D104230FE0B3F5807FE2D101230AE0DE
:1038B40040F2022293422DD0B3F5407F2CD0B3F5D1
:1038C400007FD6D102238DF8043084F48033C3F30F
:1038D4000043E0068DF805304CBF0323C4F34013C6
:1038E40021038DF8063019D50121D8F8043001FAE6
:1038F40007F79F600022304601A901F083FB154BB6
:10390400984214BF6FF01500002005B0BDE8F083A5
:103914000723D8E70523D6E70323D4E7620341BF8F
:103924000121D8F8043001FA07F7DF60E2E7E30683
:103934004FF000034CBF0324C4F340141A4630462E
:1039440001A98DF8044001F0B1FA024B984283D0EA
:103954008FE700BF0000AD0B2DE9F04106691D465D
:1039640096F84430174686B09A070C9C0FD41E4B29
:103974006FF00404059302234FF482511B4804AAF8
:10398400049304F03CF9204606B0BDE8F081631CC2
:1039940006F11C0820D04FF4004C40F2E73000211F
:1039A40024EAE4744FF47A720023C4FB0C01FCF79C
:1039B400DDFC02460B463946404602F057FA0446FF
:1039C40070B10B4B4FF4825105930223074804AAAC
:1039D400049304F014F9D6E74FF0FF321346EAE7F4
:1039E400B3692B60CFE700BF8D930000A48800006B
:1039F400A6930000B0B500AF044601F0D3FE114B0E
:103A040098421CD06D4688B06A460F4B4FF4C251A1
:103A1400C2E9053003230D4842F8103F04F0EFF8E3
:103A240094F84430AD46DB0702D5206803F09CFBD4
:103A340000236FF0040084F84530BD46B0BD00207B
:103A4400FBE700BF0000AD0BBF930000A48800009B
:103A5400F0B587B000AF0469032951D8DFE801F05D
:103A6400020F020F94F845301BB900201C37BD46E5
:103A7400F0BD01F001FF012384F84630F5E794F826
:103A840044309A070DD4274B4FF482517B610223B3
:103A9400254807F110023B6104F0B1F86FF004000F
:103AA400E4E794F8452002F0FF05002ADDD1012265
:103AB400DB0784F8465084F845201BD503261B4BAE
:103AC40020682561A360E660211D03F004FB002843
:103AD400CBDA84F845506C4688B06A46144B4FF4F0
:103AE400C251C2E90530104842F8106F04F087F85B
:103AF400A546D3E72046FFF77DFF00EAE070B5E76F
:103B04006C4688B06A460B4B0748C2E9053103236B
:103B14004FF4C25142F8103F04F071F86FF01500F1
:103B2400A546A3E78D930000A4880000097C00004B
:103B3400DB930000F79300002DE9F04F93B0056983
:103B440000AF95F845300C4603F0FF02D0F804B0FE
:103B5400D1F810A07A6183B1904B91487B64022321
:103B64004FF4825107F140023B6404F048F86FF0CF
:103B74000F004C37BD46BDE8F08F91F824C0BCF16E
:103B8400010F14BF0223012381F825304FF00103F4
:103B940014BF4FF010084FF0000881F827307B69FC
:103BA400C1E9078391F82630012B0AD10CF1FF33C8
:103BB400012B06D84E69464501D0012E01D1A369D7
:103BC4006BB1784B7B64022375484FF4825107F143
:103BD40040023B6404F013F86FF01500C9E7DAF80B
:103BE4000090B9F1000F02D09AF8043073B995F837
:103BF400440010F00200BCD001F0BCFD95F8443044
:103C04006FF34103002085F84430B2E7102B01D054
:103C1400654BD7E707F1200E0BF104030FCB8EE8B9
:103C24000F000CF1FF329BF81830D2F1000C4CEB72
:103C3400020CB6EB080618BF0126022B0CBF0123A9
:103C440000235A4A87F82C30594B08BF1346FB60AF
:103C54002368DFF860813B607B6A87F820C0BB6122
:103C640097F82B3087F82160FB614FF0FF333B61FD
:103C740098F80060FB6806FB09F103EB51020805A4
:103C84000023090BFCF772FB4FF48013B3FBF0F332
:103C9400FA68B2FBF3F33A6893420DD36268934235
:103CA4000AD8B3FBF6F63969B14594BFA6EB09020D
:103CB400A9EB06028A4263D33F4B08F102089845F8
:103CC400D6D17B6923B1BB697B62FB6987F82B3052
:103CD4003B69013308D1394B74E7BA69C7E9016319
:103CE4007A62FA6987F82B206C4688B06A46344BAE
:103CF4004FF403515361BB68294893617B68D361D6
:103D0400042342F8103F03F07AFF95F84430A546A7
:103D14009B0707D501F02EFD95F844306FF341035E
:103D240085F84430DBF8001007F1200001F09EFC18
:103D3400244B984211D06C4688B06A46224B4FF40B
:103D4400C251C2E905300323154842F8103F03F07D
:103D540056FF6FF00400A5460BE7BAF8063095F855
:103D64004420AB61DAF8083022F003026B619BF85F
:103D74001830003B18BF012343F00203134341E70B
:103D84000103B96198F80110F961002AA5D0C7E9C7
:103D9400016301233A617B618EE700BF0B9400004D
:103DA400A4880000369400005F9400000080BB00EB
:103DB4000048E801649500006895000081940000C3
:103DC400AF9400000000AD0BDC94000037B504464E
:103DD400002201212620FEF795FC636800215D691D
:103DE40001AA284603F0A0FF002818DB019B2A68DB
:103DF4001979186803F0B5FF002810DB042309487B
:103E04001A46094904F02DFA636825691B7E022BC2
:103E14000CBF03200020FFF7A3FB2860002003B0A1
:103E240030BD00BF7C020220A80202202DE9F0412F
:103E340086B006780546334C00AFB6B100220023A5
:103E44003946606901F0C0FE00282ADAE84688B0E5
:103E54006A462D4BC2E9053003234FF4C2512B4867
:103E640042F8103F03F0CBFEC54694F846206B6839
:103E74003AB323B1394660693B6004F0B7F994F86A
:103E840045304BB1002384F8453094F84430DB07C7
:103E940002D5206803F068F976BB1837BD46BDE843
:103EA400F081A1693868C1F34F0101F097FC184B08
:103EB400984204D0E84688B06A46164BCAE7002602
:103EC400D3E7002BE8D0002200231348291D01F07A
:103ED4007DFF0028E0DA114B4FF482517B6102230D
:103EE4000A4807F110023B6103F089FE6B6839460A
:103EF40060693B6004F07AF901F0BEFC012384F8A8
:103F04004630CAE760020220FD940000A488000045
:103F14000000AD0B1B9500007C02022038950000C8
:103F2400F0B54B79012B28D0032B23D110278B79A3
:103F3400032B1FD1CD790DB1012D1BD10A79012A93
:103F44001DD0022A1FD0AAB914460B684668B3F5DF
:103F5400164F36686ED033D8B3F5165F6DD01CD8C3
:103F6400B3F5966F6BD010D8B3F5967F6AD0B3F5DE
:103F7400167F6AD06FF085005BE00027D7E74FF427
:103F840080740E22E1E70024FBE7B3F5166F5FD0DF
:103F9400B3F5965FEED1394B3EE0B3F5E14F5AD01D
:103FA40007D8B3F5615F58D0B3F5964FE2D1344BDF
:103FB40032E047F6122C6345DCD14FF400032BE0CA
:103FC400B3F5613F4BD013D8B3F5963F4AD009D827
:103FD4004DF6C02C634547D0B3F5614FCAD14FF4B9
:103FE4006B0319E0B3F5E13FC4D14FF0EB7313E079
:103FF400B3F5612F3BD009D8DFF888C0634539D0C9
:10400400B3F5E12FB6D14FF0E86305E0DFF878C0EF
:104014006345AFD14FF0805300692C433A43C6F84F
:1040240024352243031DC6F86C2503C983E8030025
:104034000020F0BD4FF41D03EEE7144BECE74FF402
:104044009E23E9E74FF4A033E6E74FF41C33E3E79C
:104054004FF41D23E0E70E4BDEE70E4BDCE74FF099
:104064006C73D9E70C4BD7E74FF46503D4E74FF0F3
:104074007063D1E74FF08063CEE700BF00B0130058
:1040840000A04E0090D0030040420F0000502700D3
:1040940000C0750000F03A0000903A012DE9F043A9
:1040A400074687B0002201210820FEF72BFB0820D9
:1040B400FEF7F6FA0021D7F804803E69D8F80040EC
:1040C400D8F80C90C4F800156A464846376003F0E7
:1040D4002BFE051E26DB009BD9F8002019791868F1
:1040E40003F03FFE051E1DDB3846311DFFF718FFA8
:1040F4000546B8B9D8F80430990723D506F1180055
:1041040000F040FE244B984210D0244B0593022328
:1041140004932B466FF004054FF48251204804AAFF
:10412400FDF7B0FD284607B0BDE8F083327E42F0CB
:104134000043C4F8A031C4F88C3001239340194AD9
:10414400C2F804350823C4F8003598F8083053B988
:10415400C4F81031D4F810317369C4F8343501232C
:10416400C4F838352360D8F804309A075CBF4FF49C
:104174008072C4F80423DB0644BF4FF48003C4F800
:1041840004333369C4F844350023C4F848350123A3
:10419400A360E360C6E700BF0000AD0B68950000B4
:1041A400FC88000000700150F8B504460D4607690C
:1041B40004F045F810B92D4B1B788BB94FF0200350
:1041C400EFF3118683F31288BFF36F8F6068314673
:1041D40003F045FD30BB86F31188BFF36F8FEDE725
:1041E4006426606803F03BFD70B9012003F08DFE86
:1041F400013EF6D10021212002F066FAF0E786F3B1
:104204001188BFF36F8FF5E74FF02003EFF31186AA
:1042140083F31288BFF36F8F6068314603F01FFD8C
:104224000028ECD03B691D70626838691368C3F8D4
:1042340044050120C3F848050020C3F82001D3F841
:104244002041C3F858015268D3F85801D20641BF3F
:104254000822C3F800254FF48002C3F80423012286
:104264009A6081F31188BFF36F8FF8BD9305022024
:104274000123834010B5DC430D4AD2E8EF1F01EA65
:10428400040CC2E8EECFBEF1000FF6D14FF4803239
:1042940002FA00F002F15022C2F80803BFF35F8F64
:1042A400BFF36F8F0B4214BF0120002010BD00BF6D
:1042B400C00202201949F8B5044622F07F45086877
:1042C400C1E90023A5F50013101AB3F5400F22D25B
:1042D400134B1B681A0A1B065E19124B42F10007A6
:1042E400C3E90067012602F04DFBA30003F150234C
:1042F40003F58033D3F84025AA420BD11EB94FF4FD
:104304000002C3F840254FF48030074B00FA04F450
:10431400C3F84443F8BD0026E5E700BFB806002013
:10432400C40202209006002000500150E1B1012394
:104334000E4A8340D2E8EF1F1943C2E8EC1FBCF1D8
:10434400000FF7D14FF48033094A8340C2F8043395
:10435400084BD3E8AF3F23FA00F0C30742BF4FF442
:104364000012054BC3F80021704700BFC0020220B1
:1043740000500150BC02022000E100E0C3B2024838
:104384009B001844704700BF40510150024B00F598
:10439400A87053F820007047005001500D4B186866
:1043A400010A0006BFF35F8F0B4BD3F804351818CE
:1043B40041F10001B3F5801F0AD2084BD3E9002371
:1043C400904271EB030303D210F1807041F10001BC
:1043D400704700BFC4020220005001509006002024
:1043E4002DE9F04F85B016461F460546FFF740FFFE
:1043F4000090FFF7D3FFB04271EB070375D2434B34
:10440400301A67EB0101984271F100037AD2404BF4
:1044140003EB0513D3E902894F4508BF46454FD046
:104424004FF4803226F07F430193AB0003F1502A0E
:104434000AF5803A02FA05F3DAF84005DFF8D4B059
:10444400029326F07F44DBF80425801A20F07F4095
:1044540022F07F430128CAF8403504D10392132087
:1044640004F036F8039A02F1020CA4EB0C0020F0DD
:104474007F40B0F5000F88BF64462846039203F0DE
:1044840038FC029B24F07F40CBF84433CAF8400543
:10449400DBF80405039A82420AD0C0F1FF2000F53C
:1044A4007F00FE30204420F07F40B0F5000F1AD882
:1044B400019BE41A24F07F4414EB060847F1000939
:1044C400002413490E982B0101EB0512C850C2E9D0
:1044D40002890F9B536028460099FFF727FF204667
:1044E40005B0BDE8F08F2046ADE701230A4AAB4092
:1044F400D2E8EF1F1943C2E8E01F0028F8D1B04604
:10450400B946DDE76FF01504E5E700BF01000001DF
:104514009806002000500150BC02022073B54FF4ED
:10452400803200254FF0FF304FF0FF31194C1A4B09
:10453400C4F80855C3E90201C4F80423C3E9060119
:104544004FF4003302264FF40012C4F80433134B23
:104554000121C4F804631520C3F880212A46FEF71C
:10456400D1F81520FEF79CF801230322A3602360F1
:104574000B4B28461A600B4B0B4A1E600B4B0195E4
:1045840000930023FFF72CFF3046FEF7F1FF284687
:1045940002B070BD005001509806002000E100E018
:1045A400C0020220B8020220FFFF7F00B9420000CF
:1045B4003A4B2DE9F74FD3F8042392070BD5D3F8E0
:1045C400042142B10022C3F80421354AD3F804314E
:1045D4001368013313600024324DDFF8C080324F7A
:1045E4004FF02003EFF3118183F31288BFF36F8F31
:1045F4004FF48036D8F80433A6401E4234D1002349
:1046040081F31188BFF36F8F3BB3FFF7C7FE4FF001
:104614002003EFF3118E83F31288BFF36F8F214BC6
:1046240003EB041CDCE90223904299414FF00000A3
:1046340031D3D5E900194FF0FF3A4FF0FF3B286022
:10464400CCE902ABC8F848638EF31188BFF36F8FCF
:1046540019B12046CDF800908847103514B103B045
:10466400BDE8F08F0124BBE70123A340DB43D7E877
:10467400EF2F02EA0300C7E8EC0FBCF1000FF6D1FC
:1046840022B90A4B53F82430002BB8D0204603F04B
:1046940030FB0123B4E70146D6E700BF00500150C8
:1046A400C402022098060020BC020220405101509E
:1046B40010B501240C4B186898B1B0FA80F0C0F121
:1046C4001F0004FA00F1C943D3E8EF2F02EA010CFA
:1046D400C3E8EECFBEF1000FF6D1C240D207EAD54F
:1046E40010BD6FF00B00FBE7B80202200123054A5E
:1046F4008340D2E8EF1F1943C2E8E01F0028F8D135
:10470400704700BFB8020220431C13B520D0012813
:1047140020DDB0F5000F1FDA441EFFF73FFE0F4BFC
:10472400D3E90013401AB0F5000F28BF002401306C
:1047340002190B48824228BF024600205218094938
:104744000190009143F10003FFF74AFE02B010BD4F
:104754000348E1E70024E0E7014CDEE7B806002067
:10476400FFFF7F00B942000008B5FFF717FE024BB8
:104774001B68C01A08BD00BFB8060020054A064BD6
:1047840000F01F014009012808BF134601228A4096
:10479400DA607047002884500025845070B500F416
:1047A4008054002C0E4E0EBF15460125002110F03A
:1047B400200F00F01F04C0F381120A4818BF3046CE
:1047C4001B0200EB8400D0F8004243EA82020A4351
:1047D40004F0E04442EA45022243C0F8002270BDDE
:1047E4000028845000258450054A064B00F01F0120
:1047F4004009012808BF134601228A409A60704785
:10480400002884500025845030B504460269A9B0BC
:10481400C2F880002649002000F02AFE002201216F
:104824002A20FDF76FFF64688422002107A803F0A3
:10483400EEF86368B3F5803F0AD31E4B0593022359
:10484400049300234FF484511B4804AAFDF71AFA79
:104854002368B3F5803F0AD3184B059302230493CE
:1048640000234FF48451144804AAFDF70BFAD4E949
:10487400004000230121279307AA20FA03F5ED073E
:1048840044BF01FA03F5156024FA03F5ED0748BFA8
:1048940001FA03F503F1010348BF1564102B02F17B
:1048A4000402EAD107A800F0FBFD002029B030BDC6
:1048B400BD490000A1950000CC880000CD95000002
:1048C40030B50F290C46056987B036D843681B6894
:1048D400CB40DB0731D5D5F88430CB4003F001035E
:1048E4001AB973BB6FF0770029E0002BFAD155F8A1
:1048F40021304BB9194A0592022204924FF4845193
:10490400174804AAFDF7BEF9D5F8843013B92A2054
:10491400FDF7C6FE012303FA04F2D5F884301343ED
:10492400C5F88430E0B200F0DBFDD5F8844014B95A
:104934002A20FDF7C5FE002001E06FF0150007B046
:1049440030BDC8B200F0D4FD012303FA04F4D5F855
:10495400843023EA0403C5F88430E6E7F9950000BF
:10496400CC88000030B505460C4687B052B1104BD8
:1049740005930223049300234FF484510D4804AAA1
:10498400FDF780F90F2C0FD86B685B68E340DB07F9
:104994000AD501230020A400E4B204F1A04404F5E4
:1049A4002834236007B030BD6FF01500FAE700BF6C
:1049B40029960000CC8800002DE9F04F05460E46EC
:1049C400D1F88070DFF88890DFF88880DFF888A05D
:1049D40087B015B907B0BDE8F08F95FAA5F4A4B374
:1049E400B4FA84F40F2C04DC7B681B68E340DB0717
:1049F4000AD40223CDF81490049300234FF4845175
:104A0400404604AAFDF73EF9D6F88430E34013F09B
:104A1400010309D10222CDF814A004924FF4845169
:104A2400404604AAFDF72EF9012356F824B0A3400A
:104A340025EA030506EB8402BBF1000FC9D000236D
:104A440021463846126CD847C3E72024D1E700BF7B
:104A540044960000CC880000609600007FB5FDF706
:104A64002DF8074B059302230493064800234FF4C3
:104A7400825104AAFDF706F90020FEF74DFA00BFA3
:104A840096960000B48800004FF47F03D3F83021D9
:104A9400D3F83431072A05D1023B032B02D8024A4A
:104AA400D05C704700207047B39600004FF050234D
:104AB400D3F85825034B02F00302D340024A136093
:104AC400704700BF0020A1075400002008B5FFF77D
:104AD400DBFF58B14F4BD3F8202A3AB90D21C3F864
:104AE400201A0121C3F81C19C3F81C290022D30081
:104AF40003F57F03D3F80013013107D0D3F8001373
:104B04000132D3F80433202A0B60F0D1FFF7BCFF45
:104B1400002876D1FFF7B8FF40B13F4B3F4AC3F8B6
:104B240030254FF050230122C3F858254FF47F035A
:104B3400D3F83021D3F83431072A09D1023B032BAF
:104B440006D8374AD35C1BB10022364BC3F84C2538
:104B5400FFF79AFF50B14FF05023D3F80024D10748
:104B640042BF0022C3F81421C3F818214FF47F0375
:104B7400D3F83021D3F83431072A09D14FF0502328
:104B8400D3F80024D20744BF6FF00102C3F8002415
:104B9400FFF77AFF18B165221E4BC3F80C274FF4B8
:104BA4007F03D3F83021D3F83431072A16D11D4BB3
:104BB400D3F82034002B11DA4FF050230322C3F82A
:104BC400182501229A60D3F80421002AFBD0002280
:104BD400C3F804210122DA60C3F81825124AD2F876
:104BE4008C3043F44063C2F88C30104A104B116887
:104BF400C3F84415D269C3F84C25BDE80840FFF753
:104C040055BF2922034BC3F80C270322C3F83C27C2
:104C140080E700BF00400050009003504400EFBE06
:104C2400B79600000020035000ED00E00080FF0074
:104C34000060005070B501250268B2FA82F3C3F136
:104C44001F035E1CDCB210D005FA03F322EA03034F
:104C5400D0E8EF6F964204D1C0E8EC3FBCF1000FFE
:104C6400F6D1E9D102480C7070BD0248FCE700BFE0
:104C74000000AD0B0200AD0B036810B5CB40DB07A1
:104C840011D4012303FA01F1036841EA0302D0E8D5
:104C9400EF4F9C4204D1C0E8EC2FBCF1000FF6D1D9
:104CA400F2D1024810BD0248FCE700BF0000AD0B82
:104CB4000400AD0B044B1A7922B9012218601A7151
:104CC4000248704702487047500302200000AD0BB1
:104CD4000C00AD0B4FF05023D3F8002110B552B1A6
:104CE4000020C3F80001D3F800210122C3F80823EF
:104CF400234B1B6898474FF05023D3F804218AB103
:104D04000022C3F80421D3F80421D3F81824D3F8DB
:104D1400181402F00302012A4FF0020128D1C3F84B
:104D240018159A604FF05023D3F8202162B1002265
:104D3400C3F82021D3F820214FF48072C3F808234C
:104D44000F4B04201B6898474FF05023D3F82421BD
:104D5400AAB1BDE810400022C3F82421D3F82421CD
:104D64004FF40072C3F80823054B05201B6818474D
:104D7400C3F80813024B01201B689847D2E710BD03
:104D84005003022001460148FFF754BF5800002099
:104D94000123044A83400146C2F808350248FFF75C
:104DA4006BBF00BF0070015058000020036803F07F
:104DB4001F020260034A04485B09012B08BF104626
:104DC400704700BF0028845000258450034B0830EE
:104DD40033F81000C0F34010704700BF5C0000209F
:104DE40070B50D4C00F1080334F813300546DA05AC
:104DF4000E4607D5C3F3432304EBC302526854F8A9
:104E040033309847A3682BB131462846E268BDE8A1
:104E14007040184770BD00BF5C000020124A083083
:104E240032F8103010B4D9051BD5C3F3432123F451
:104E3400F85322F81030002002F1100434F8023B39
:104E440013F4807F03D0C3F34323994209D0013084
:104E54003028F3D10023054810BC42F83130FFF765
:104E64000BBF10BC704700BF5C000020D0000020C6
:104E740038B50246FFF7AAFF0B4C02F1080560B1F2
:104E8400002134F815305B0B9B0003F1A04303F5BC
:104E94005043C3F81015C3F810151046FFF7BEFFB2
:104EA400002324F8153038BD5C0000202DE9FF41B3
:104EB400044616461D4621B34E4F00F1080837F844
:104EC40018309B0706D5FFF781FF18B14A4804B094
:104ED400BDE8F08100232046CDE900338DF80E3083
:104EE4008DF80F300DF10F020B460DF10E0103F09A
:104EF400FDF837F8183023F0020343F0010327F8D4
:104F0400183096B13B483378726804F1080630F8DB
:104F140016108F070CD5002AD8D130F8162022F0AD
:104F24001C0242EA830320F81630CDBB3348CEE797
:104F340021F02001C904C90C20F81610002AECD075
:104F4400032BC3D892F800C06246920002F1A0423B
:104F540002F5504223B9C2F81035C2F81035DCE727
:104F6400D2F8107541EA4C3127F00307C2F81075E6
:104F7400D2F8107541F0200127F44F3727F4407719
:104F8400C2F81075D2F810E5270207F47C574EEAF0
:104F9400034E47EA0E07C2F8107520F81610BCE756
:104FA4002046D5E90067FFF739FF002EBED0114D2A
:104FB4002B689E4204D16B689F4201D100220AE013
:104FC4000F480DF10F01FFF735FE0C4B98427FF4AB
:104FD4007EAF9DF80F2005EBC20308345F6035F8FF
:104FE400143045F8326043EA422343F4807325F8D1
:104FF40014309BE75C0000200400AD0B0000AD0BF7
:10500400D0000020F0B50446154685B019B3344EDF
:1050140000F1080736F81720930703D4FFF7D6FEEC
:1050240000285AD112F01C0F02D04B78012B54D017
:1050340001238DF80F3000234A1CCDE900132046CC
:105044008B1C0DF10F0103F051F836F8173043F0C3
:10505400030326F8173015B9224805B0F0BD204ED9
:1050640004F1080736F81700830736D595F800C011
:105074000023614620F02000890001F1A041C00412
:1050840001F55041C00CC1F8103526F81700C1F8DD
:1050940010356A78002ADFD0D1F81035AD7823F4C2
:1050A400991323F4F853C1F81035D1F810E523020D
:1050B40003F47C53120402F4403243EA0E03134314
:1050C4002A0502F4801240EA4C30134340F02000D9
:1050D400C1F8103526F81700BEE70348BDE700BF46
:1050E4005C0000200000AD0B0400AD0B014BC3E9D4
:1050F400020170475C00002008B50246FFF766FE17
:1051040038B1054B083233F8123004485B0B0B708E
:1051140008BD0348FCE700BF5C0000200000AD0BA5
:105124000400AD0B38B50F4C94F87850BDB960222B
:10513400294604F1100002F06AFC0D20FDF7B0FAD4
:10514400094B0A48C3F87C51D3F87C214FF0004244
:10515400C3F80423012384F87830636738BD044816
:10516400FCE700BF5C00002000D000500000AD0B45
:105174000500AD0B034B93F87800003818BF0120ED
:10518400704700BF5C00002001460148FFF774BD72
:10519400CC00002001460148FFF74CBDCC000020A4
:1051A40037B50446FFF712FE1E4B04F1080233F82C
:1051B4001230E8B113F002051AD15B0B9A0002F128
:1051C400A04000F5514002F1A042056002F55042B2
:1051D4000068D2F8100540F00100C2F8100529B1AA
:1051E400012202FA03F3104AC2F8043303B030BDBB
:1051F400C3F38203042B11D0052B11D001A8019411
:10520400FFF7D4FD019B0169D94001F0010102318E
:10521400204603B0BDE8304002F0AFBF0321F7E7FA
:105224000221F5E75C00002000D0005008B50246DA
:10523400FFF7CCFDC0B10F4B02F1080133F8113078
:10524400990711D401225B0B9A400B499B0003F18F
:10525400A043C1F8082303F55043D3F8102522F0E6
:105264000302C3F8102508BD0021BDE8084010461C
:1052740002F083BF5C00002000D00050104B00F10E
:10528400080233F8123013B5DB07044616D5FFF7CE
:10529400CDFF2046FFF7ECFD01A80194FFF786FD42
:1052A400019B00EB8300D0F8003203F0E04343F0AD
:1052B4000203C0F80032034802B010BD0248FBE705
:1052C4005C0000200000AD0B0400AD0B2DE9F04F95
:1052D400002601223446604B6048614987B01D684E
:1052E40035B1D0F8045315421EBF1C601D68164327
:1052F40004338B424FEA4202F1D1DFF86091D9F8CE
:105304007C31002B00F08A80564F3B6A04933B6249
:10531400554B1A6A05921A624FF000080DF1100AF3
:105324004FEA4813009349E094FAA4F4B4FA84F4DD
:10533400009B4E4A1C4404F1080332F81330E00881
:105344009908C3F38205012304F0070203FA02FC5F
:105354001AF80020039422EA0C020AF8002003A899
:10536400FFF724FD039A4B0702F1800250F8222034
:10537400AB46C2F301422BD520465946D5B2FFF7BE
:105384002FFD03A80394FFF711FD039B803350F80E
:105394002330C3F301439D4207D10021204602F08C
:1053A400ECFE2946204602F0E8FE03A80394FFF72A
:1053B400FDFC0122039B02FA03F303625AF828401E
:1053C400002CB1D1B8F1000F1AD14FF00108A7E7B2
:1053D400022A0CBF032102212046019202F0CDFED5
:1053E400032D04D0019A022A06D1012DDDD159469C
:1053F4002046FFF7F5FCD8E7032AD6D1022DF5E7BE
:10540400C9F87C41D9F87C313A6A174904923A6266
:105414000B6A05930B6213437FF47EAF012416B924
:1054240007B0BDE8F08F96FAA6F3B3FA83F304FA53
:1054340003F29B0003F1A04303F55043D3F8100596
:10544400D3F81015C0F30520C1F3014126EA020682
:10545400FFF7C6FCE3E700BF00D1005000D00050C6
:1054640020D1005000258450002884505C00002086
:1054740070B5084C0E462379154643B92A20FDF72A
:105484000FF90123044823712660A56070BD034809
:10549400FCE700BF580302200000AD0B0C00AD0B6D
:1054A400002330B50D4A50F8234003F5A2710133AF
:1054B400102B42F82140F6D10023084A00F14001A4
:1054C40003F5B27451F8045B0133102B42F82450F5
:1054D400F6D1D0F88030C2F8043330BD00A00250B9
:1054E4000123024A8340C2F80433704700A00250EB
:1054F4000123024A8340C2F80833704700A00250D7
:105504000C4B30B4D3F80C0301240346002523B913
:1055140030BC094B1A689968104793FAA3F2B2FA9F
:1055240082F204FA02F123EA0103044992008D5045
:10553400EDE700BF00A002505803022000A1025072
:10554400094B0A4900F01F024009012808BF0B4615
:1055540003EB8203D3F8002202F0E04242F002029D
:10556400C3F80022704700BF0025845000288450EF
:105574001FB53C4A3C4CD2F80031002B47D00023E5
:10558400C2F80031D2F80031A37CDA4302F0010200
:1055940004EB8201496811B9617C02292CD1607C39
:1055A400002102280DBF012304EB830358686374B0
:1055B40018BF59604FF001038DF80C10E1740EBF51
:1055C40002910290A2748DF80430236801A89847D0
:1055D400637C022B01D101236374237D53B1012326
:1055E4008DF80430002301A802938DF80C30237544
:1055F4002368984704B010BDE37C002BE8D18DF8F4
:105604000430029301238DF80C30E374DDE7D2F803
:1056140004110029E1D0C2F80431D2F80411C2F80F
:105624000035A27C637404EB820251688DF80C305F
:105634008DF8043021B153600291236801A8984782
:10564400A37CDB4303F0010304EB83035A682AB110
:105654000292002201A85A60236898470023A37489
:10566400BBE700BF0060025064030220F8B53B4C66
:10567400237C002B6ED1077A502F6DD8467A502E9A
:105684006AD8C4E90133457B63826374344AC37ABC
:1056940021606575C2F82035037BC2F84C35436838
:1056A400C2F80435437801785B0003F0020301F08B
:1056B40001010B43C2F80835C2F81875C2F81C651D
:1056C40045BB8378274E02F5010203F01F0702F55C
:1056D40045425B090125012B14BF11463146BD40EB
:1056E400CD6001EB8701D1F8005205F0E04545F0AB
:1056F4000305C1F80052C1784B09012B08BF32469B
:1057040001F01F0302EB8303D3F8002202F0E0420E
:10571400C3F80022827B124B2AB98178C278C3F87D
:105724004015C3F844250022C3F80021D3F8001122
:10573400C3F80821D3F80811C3F80421D3F80421CD
:1057440003222620C3F80423FCF7AAFF01230648FA
:105754002374F8BD0548FCE70548FAE76403022012
:1057640000600250002884500000AD0B0500AD0B12
:105774000400AD0B38B50023084C094DC4F80035BE
:105784006B7D3BB9D4F84005FFF7DAFED4F8440545
:10579400FFF7D6FE00232B7438BD00BF0060025013
:1057A40064030220094B5A7C32B15A7C0848094BE5
:1057B400012A18BF1846704702225A7401221A752A
:1057C4004022054B0248C3F80421704764030220B9
:1057D4000000AD0B0B00AD0B00E100E070B5204CF8
:1057E4000646237C0D46002B33D0637C032B32D03A
:1057F400002832D00B0430D42620FCF761FF627CF1
:10580400A37C022A16BFDB43002303F0010304EB4D
:1058140083025168B9B904EB43039D81114B56606F
:10582400C3F86065C3F86455227C022A09D00222B9
:1058340022740122C3F80025C3F80011D3F8001123
:105844001A60094C00E0094C2620FCF729FF204689
:1058540070BD074CFBE7054CF9E7064CF7E700BFC2
:1058640064030220006002500000AD0B0B00AD0B7E
:105874000500AD0B0400AD0B0C4B597C0129CAB2D9
:105884000BD05A7C12B15A7C022A0CD1002208494E
:10589400C1F800255A740748704703211A745974D3
:1058A400034B5A60F7E70448704700BF64030220C3
:1058B400006002500000AD0B0B00AD0B0E4B70B539
:1058C40053F82040013053F82060A64200D870BD40
:1058D400D4E900352846984765B1EB6830B1002813
:1058E400B8BF4042FF28A8BFFF2018705A7842F082
:1058F40001025A700834E8E7388B00002DE9F047BC
:1059040086B005460E4600AF4FF02003EFF3118832
:1059140083F31288BFF36F8F00F0F0FE042D98BF5D
:105924002C4BE9468AB004466A4694BF53F82530A6
:10593400294BD36103234FF0000A82F8243027490E
:10594400274BC2E90515C2F820A042F8103F4FF4D6
:10595400295153462348FCF795F9CD467EB1F369A6
:10596400C3F308035BB1204B7B6102233B614FF41B
:10597400825153461B4807F11002FCF783F92CB1FE
:10598400204602F065FC08B1037803B91748E946DC
:105994008AB06A46164BD061C2E90534032382F803
:1059A4002030144B42F8103F00234FF409510D48A6
:1059B400FCF768F93146CD462846FFF74FF888F3DF
:1059C4001188BFF36F8F2046FDF7EEFA1837BD46F6
:1059D400BDE8F087508B0000BB960000D196000014
:1059E40005000001DC880000F9960000C99600005B
:1059F4001A97000004000001012208B5094B022097
:105A04001A70FFF75BFF01F0EFF80320FFF756FF72
:105A140000F064F9FAF716FE034A137B23F001033E
:105A2400137308BD930502204007002008B50348FE
:105A3400034A0021121A02F0BAFB08BDD801002063
:105A4400940502200023012270B586B0CDE9042319
:105A54000F220193CDE9023218234FF4A0720E4DA8
:105A64000E4E03FB00550E4906EBC016044602FB1E
:105A740000110C4B3046009500F0D4F8737B0A48B3
:105A84002C75013423F0040300EBC4247373EE601B
:105A94006C6006B070BD00BF7C030220C00600200D
:105AA400980C0220995D0000D80D022080B52E4B81
:105AB400A6B003F5006282F3088883F30A88002401
:105AC400E0232A4D2A4E85F82230EC772C766C762A
:105AD400AC7685F820406B6A264F43F4E0236B6272
